:100000000C9474000C9495000C9495000C9495003D
:100010000C9495000C9495000C9495000C9495000C
:100020000C9495000C9495000C9495000C949500FC
:100030000C9495000C9495000C9495000C949500EC
:100040000C9495000C9497000C9495000C949500DA
:100050000C9495000C9495000C9495000C949500CC
:100060000C9495000C94A3000C9495000C949500AE
:100070000C9495000C9495000C9495000C949500AC
:100080000C9495000C9495000C9495000C9495009C
:100090000C9495000C9495000C9495000C9495008C
:1000A0000C9495000C9495000C9495000C9495007C
:1000B0000C9495000C9495000C9495000C9495006C
:1000C0000C9495000C9495000C9495000C9495005C
:1000D0000C9495000C9495000C9495000C9495004C
:1000E0000C9495000C94D10111241FBECFEFD1E2E6
:1000F000DEBFCDBF00E00CBF14E0A0E0B2E0E4E65C
:10010000FCE000E00BBF02C007900D92AC34B107D9
:10011000D9F724E0ACE4B4E001C01D92A639B207DF
:10012000E1F70E9479020C9430060C9400008F9342
:100130008FB78F9380914C04826080934C048F9191
:100140008FBF8F9118958F938FB78F9380914C04A9
:10015000846080934C048F918FBF8F911895EF929C
:10016000FF921F93CF93DF93EC011881183621F58E
:100170008981811121C081E192E00E944E038BE1CF
:1001800092E00E944E0385E392E00E944E038DE4CC
:1001900092E00E944E0382E792E00E944E0389E9BA
:1001A00092E00E944E038DEB92E0DF91CF911F9180
:1001B000FF90EF900C944E0363E274E0CE010E9436
:1001C0002903892BC1F2133701F5898181111DC0E3
:1001D00080914F0491E0892780934F04811509F4A1
:1001E00072C080E093E09F938F9384EE92E09F93A0
:1001F0008F930E943A030F900F900F900F90DF9112
:10020000CF911F91FF90EF90089561EF72E0CE01C2
:100210000E942903892B09F459C068E073E0CE01DC
:100220000E942903892B09F457C0163631F16EE17B
:1002300073E0CE010E942903892B11F1133609F0D6
:1002400050C0898181114DC083E693E00E944E0326
:100250000E94FD010E940B037C0180934E04FF2449
:10026000FF92EF9283E793E09F938F930E943A036C
:100270000F900F900F900F90C2CF89818111D7CF2F
:1002800083E293E00E944E030E94FD010E940B0353
:1002900080930102909302029F938F938AE393E0ED
:1002A0009F938F930E943A030F900F900F900F909F
:1002B0008091010290910202DF91CF911F91FF90F6
:1002C000EF900C94360286E193E08DCF81E080932D
:1002D0004F0487EF92E069CF10924F048DE093E0D6
:1002E00064CF6BE573E0CE010E942903892B09F4EA
:1002F000ABCF1D36D1F48981811117C08BE893E013
:100300000E944E030E94FD01FC0180818093000247
:100310001F928F9385EB93E09F938F930E943A03F4
:100320000F900F900F900F906ACF66E873E0CE01A8
:100330000E942903892B11F31437F9F48981811163
:100340001CC08DEC93E00E944E030E94FD010E94B0
:100350000B039C0191E0232B09F490E090934D0452
:100360001F929F938BED93E09F938F930E943A038C
:100370000F900F900F900F9042CF65EC73E0CE017D
:100380000E942903892BE9F2DF93CF938EEE93E04D
:100390009F938F930E943A030F900F900F900F90AE
:1003A0002ECF8A3049F09091C00095FFFCCF80930A
:1003B000C60080E090E008959091C00095FFFCCFCA
:1003C0009DE09093C600EFCF9093C5008093C4004A
:1003D00086E08093C20088E98093C10008959091DF
:1003E000C00095FFFCCF8093C60008958091C000A7
:1003F00087FFFCCF8091C6000895E0E5F4E080918E
:10040000C00087FFFCCF8091C6008A3021F08D307C
:1004100011F08193F4CF108280E594E008958091EB
:10042000C00087FB882780F90895FC019081911511
:1004300051F031968091C00085FFFCCF9093C600AB
:1004400091919111F7CF089583E092E090939304F6
:10045000809392041092C50087E68093C40086E0E2
:100460008093C20088E98093C10008958295929597
:10047000907F9827807F98279C0140E050E060E0C3
:1004800074E284EF90E00E94CA0221503109E1E851
:10049000F0E08081886080838081826080833093F7
:1004A000890020938800EFE6F0E0808182608083FD
:1004B000089580E680937C00EAE7F0E087E080839F
:1004C000808180688083089590917C008F70907FF8
:1004D000892B80937C0080917A00806480937A00DD
:1004E00080917A0086FDFCCF809178009091790010
:1004F00008950E9459020E94240288EE93E00E940F
:10050000360283E094E00E944E0386E194E00E946C
:100510004E037894C8E2D4E080914C0481FD0EC073
:1005200083B7817F83BF83B7816083BF889583B79B
:100530008E7F83BF80914C0481FFF2CF0E94FD012A
:100540000E94AF0080914F04811531F38091000229
:10055000833659F0823601F780914D048115E1F21E
:1005600088E394E00E944E03D7CF80914E040E940E
:1005700064029F938F9380914E041F928F93DF9319
:10058000CF930E943A030F900F900F900F900F900F
:100590000F90C2CF052E97FB1EF400940E94E1023B
:1005A00057FD07D00E94E90207FC03D04EF40C94DB
:1005B000E10250954095309521953F4F4F4F5F4F49
:1005C000089590958095709561957F4F8F4F9F4FBF
:1005D0000895A1E21A2EAA1BBB1BFD010DC0AA1F84
:1005E000BB1FEE1FFF1FA217B307E407F50720F09C
:1005F000A21BB30BE40BF50B661F771F881F991F17
:100600001A9469F760957095809590959B01AC015F
:10061000BD01CF010895FC0188279927E894219115
:100620002032E9F3293010F02E30C8F32B3241F09C
:100630002D3239F4689404C00E943203820F911D58
:10064000219120532A30C0F31EF4909581959F4F3D
:100650000895FB01DC018D91019080190110D9F3FF
:10066000990B08957AE0979F902D879F802D910D8B
:1006700011240895CF93DF93CDB7DEB7AE014A5F63
:100680005F4FFA0161917191AF0180919204909155
:1006900093040E947A03DF91CF9108950F931F93E3
:1006A000CF93DF93E0919204F0919304238100E0D3
:1006B00010E021FD0EC00FEF1FEFC801DF91CF91B9
:1006C0001F910F9108951995892B11F00FEF1FEFCE
:1006D000CE01EC0189916091920470919304DB0149
:1006E0001896ED91FC918111EECF8AE01995892B36
:1006F00021F3E1CF3F924F925F926F927F928F9260
:100700009F92AF92BF92CF92DF92EF92FF920F93A0
:100710001F93CF93DF9300D000D000D00F920F92A1
:10072000CDB7DEB76C017B018A01FC01178216820E
:10073000838181FFEEC19AE0492EF6012381F70102
:1007400023FD859123FF81917F01811509F41FC14C
:10075000853239F423FD959123FF91917F019532E4
:1007600029F4B60190E00E94A205E7CF30E0612CA9
:10077000512C712CF0E27F1640F59B32D9F058F4E1
:100780009032D1F09332F1F09E3299F576FCFFC0B1
:10079000689476F806C09D3291F09033C1F4689465
:1007A00070F8F70123FD959123FF91917F0191113D
:1007B000E1CF29C0689471F8689472F8F2CF689418
:1007C00073F8EFCF689474F8ECCF77FC1CC080ED21
:1007D000890F8A30C8F676FE05C0649C800D11240E
:1007E000682EDFCF549C800D1124582E689475F824
:1007F000D8CF9C3619F4689477F8D3CF9C3409F499
:100800004BC0983671F2892F8F7D8554833008F460
:1008100045C0933609F466C0933709F469C093352F
:1008200009F475C0943619F0993609F09FC0F801A3
:1008300077FE95C061917191819191918F01272DE2
:100840002F76722E97FF09C09095809570956195CF
:100850007F4F8F4F9F4F689477F82AE030E0AE01CA
:100860004F5F5F4F5A010E94D2058A19A82E76FE6B
:10087000D9C0872D8E7FA61408F0D3C074FE26C180
:1008800072FC1AC1F72DFE7E7F2EB62C872D86783E
:10089000811509F4D4C015C131E083CF3115F9F0C9
:1008A000085F1F4F8FE3898388248394912CAE01C6
:1008B0004F5F5F4F5A01E89477F873FC03C08514CB
:1008C0009104B0F181149104D1F5511409F435CF9C
:1008D000B60180E290E00E94A2055A94F6CF0C5F28
:1008E0001F4FE0CFF801808189830E5F1F4FDCCF5F
:1008F000F801A190B1908F01662D70E076FC02C0E6
:100900006FEF7FEFC5010E9497054C01D4CFF8012E
:10091000A190B1908F01662D70E076FC02C06FEF60
:100920007FEFC5010E948C054C01689477F8C5CF14
:10093000B60180E290E00E94A2055A94C0CFF50172
:1009400077FC859177FE81915F01B60190E00E946E
:10095000A20551105A94F1E08F1A9108B3CF61911A
:100960007191072E000C880B990B68CF372CE894F7
:1009700034F82AE030E09537D9F1572D597F352EDC
:10098000903739F1F8F4983549F19F3679F1F6014D
:10099000868197812B960FB6F894DEBF0FBECDBF30
:1009A000DF91CF911F910F91FF90EF90DF90CF904B
:1009B000BF90AF909F908F907F906F905F904F907F
:1009C0003F900895983719F774FC05C020E130E096
:1009D0000FC0689434F8689432F8F8CF74FE03C0FE
:1009E000872D8660382E20E132E002C028E030E01A
:1009F000F80137FE11C061917191819191918F0140
:100A0000FE0131965F01AF010E94D2058A19A82E1E
:100A1000732CE89477F82BCF6191719180E090E08E
:100A2000EECF782EBA2C74FE31CFFE01EA0DF11D07
:100A30008081803309F043C0272D297E722E73FCFC
:100A40000EC070FE4FC06A2CB51418F4650C6B18FC
:100A5000B52C852D8B195B1408F480E0B80EB51405
:100A600008F042C05B1874FE41C0B60180E390E01C
:100A70000E94A20572FE09C088E590E071FC02C0E8
:100A800088E790E0B6010E94A205A614D8F1AA94C6
:100A9000B12C4FEFA41AB40ACE0101963C01A80E66
:100AA000B91EF50182915F01B60190E00E94A20596
:100AB0006A147B04B1F709CFB62C782EB6CF72FC3E
:100AC00002C0B394BCCFB394B394B9CFB62C782EF4
:100AD000DDCEB60180E290E00E94A2053394351489
:100AE000C0F3B7CF3B2CFBCF512CBDCF872D8678E1
:100AF000811559F280E271FC8BE277FC8DE2B60140
:100B000090E0C1CFB60180E390E00E94A2056A9414
:100B1000BCCF8FEF9FEF3ECFFC010590615070403E
:100B20000110D8F7809590958E0F9F1F0895FC01B6
:100B30006150704001900110D8F7809590958E0F0C
:100B40009F1F08950F931F93CF93DF93182F092FA3
:100B5000EB018B8181FD09C01FEF0FEF812F902FDB
:100B6000DF91CF911F910F91089582FF14C02E81C4
:100B70003F818C819D81281739073CF4E881F981F8
:100B8000CF0101969983888310838E819F8101967E
:100B90009F838E83E3CFE885F985812F1995892B73
:100BA000A1F3DACFFA01AA27283051F1203181F1DF
:100BB000E8946F936E7F6E5F7F4F8F4F9F4FAF4F65
:100BC000B1E03ED0B4E03CD0670F781F891F9A1F78
:100BD000A11D680F791F8A1F911DA11D6A0F711D2C
:100BE000811D911DA11D20D009F468943F912AE038
:100BF000269F11243019305D3193DEF6CF01089520
:100C0000462F4770405D4193B3E00FD0C9F7F6CF50
:100C1000462F4F70405D4A3318F0495D31FD405218
:100C2000419302D0A9F7EACFB4E0A69597958795AE
:100C300077956795BA95C9F700976105710508958D
:100C40009B01AC010A2E0694579547953795279539
:100C5000BA95C9F7620F731F841F951FA01D0895D1
:040C6000F894FFCF36
:100C640063E8030000000200000000D1010000005E
:100C740000436F6D6D616E64733A007374617274D6
:100C8400202873293A2073746172742073616D7023
:100C94006C696E670073746F70202873293A20732F
:100CA400746F702073616D706C696E670066726535
:100CB40071202866293A207365742074686520734E
:100CC400616D706C696E67206672657175656E63BF
:100CD40079006368616E6E656C202863293A20731D
:100CE400657420746865206368616E6E656C207439
:100CF4006F2073616D706C65006D6F646520286D85
:100D0400293A2073657420746865206D6F646520CA
:100D14006F66206F7065726174696F6E00747269BA
:100D240067676572202874293A2073657420746893
:100D340065207472696767657220636F6E64697495
:100D4400696F6E0053616D706C696E672025730A5C
:100D54000073746172740053616D706C696E672006
:100D6400737461727465640073746F700053616DA1
:100D7400706C696E672073746F707065640066725E
:100D8400657100456E746572206672657175656E75
:100D940063792028487A293A200053616D706C6980
:100DA4006E67206672657175656E6379207365740C
:100DB40020746F20256420487A0A006368616E6E8F
:100DC400656C00456E746572206368616E6E656C57
:100DD4003A20004368616E6E656C207365742074FC
:100DE4006F2025640A006D6F646500456E7465723A
:100DF400206D6F64652028633A20636F6E74696E9A
:100E0400756F75732C20623A20627566666572652B
:100E140064293A20004D6F64652073657420746FF3
:100E24002025630A007472696767657200536574EC
:100E340020747269676765723A2000547269676743
:100E440065722073657420746F2025640A00556EE2
:100E54006B6E6F776E20636F6D6D616E643A2025E3
:100E6400730A004F7363696C6C6F73636F706520F2
:100E7400726561647900547970652027682720665B
:100E84006F722068656C70004368616E6E656C20DB
:100E940025643A2025640A0054726967676572659F
:0C0EA400642073616D706C696E67000063
:00000001FF
