:100000000C9474000C9495000C9495000C9495003D
:100010000C9495000C9495000C9495000C9495000C
:100020000C9495000C9495000C9495000C949500FC
:100030000C9495000C9495000C9495000C949500EC
:100040000C9495000C9434030C9495000C9495003A
:100050000C9495000C9495000C9495000C949500CC
:100060000C9495000C9440030C9495000C9495000E
:100070000C9495000C9495000C9495000C949500AC
:100080000C9495000C9495000C9495000C9495009C
:100090000C9495000C9495000C9495000C9495008C
:1000A0000C9495000C9495000C9495000C9495007C
:1000B0000C9495000C9495000C9495000C9495006C
:1000C0000C9495000C9495000C9495000C9495005C
:1000D0000C9495000C9495000C9495000C9495004C
:1000E0000C9495000C944C0311241FBECFEFD1E269
:1000F000DEBFCDBF00E00CBF14E0A0E0B2E0E2E85C
:10010000F1E100E00BBF02C007900D92A23EB107E3
:10011000D9F726E0A2EEB4E001C01D92AB3CB207D5
:10012000E1F70E9433050C94BF080C9400008F92F5
:100130009F92AF92BF92CF92DF92EF92FF921F9366
:10014000CF93DF93EC01F89488EE93E09093130241
:1001500080931202DF93CF938CE392E09F938F936F
:100160000E94C9051881E12FE856FF0BCF01183610
:1001700011F4898190E00F900F900F900F90892BD0
:1001800039F060ED74E0CE010E94B805892B71F55D
:1001900084E592E00E94DD058EE592E00E94DD0597
:1001A00080E892E00E94DD0580EA92E00E94DD0591
:1001B00085EC92E00E94DD058CEE92E00E94DD0568
:1001C00080E193E00E94DD058091C4068B7F8093DF
:1001D000C4067894DF91CF911F91FF90EF90DF904C
:1001E000CF90BF90AF909F908F900895212F23576D
:1001F000330B4901133789F167E373E0CE010E94A5
:10020000B8057C016DE373E0CE010E94B8056C0176
:1002100081E08928F1F4EF2821F0811102C0CD2876
:10022000F9F48091220591E08927809322058115B8
:1002300009F471C084E192E09F938F9382E493E08C
:100240009F938F930E94C9050F900F900F900F906E
:10025000BBCF80E0EF2829F3E0CF8980912CCCCF71
:10026000163611F5898181111FC088E593E00E943F
:10027000DD050E9478030E949A05809312029093F4
:1002800013029F938F938FE693E09F938F930E9427
:10029000C90580911202909113020E94B1030F9040
:1002A0000F900F900F9090CF63E573E0CE010E9406
:1002B000B805892BD1F2133689F160E973E0CE01DC
:1002C0000E94B805892B69F11D3609F043C0898168
:1002D000811140C080EC93E00E94DD050E9478030C
:1002E000FC018081809310029EE9980F923008F003
:1002F0005AC0833609F478C081E392E09F938F93CC
:100300008AEE93E09F938F930E94C9050F900F9000
:100310000F900F9059CF8CE192E08ECF898181119F
:10032000CCCF88E993E00E94DD050E9478030E940B
:100330009A055C0180931102BB24BF92AF9288EAB8
:1003400093E09F938F930E94C9050F900F900F9099
:100350000F903ACF6BEB73E0CE010E94B805892B6A
:1003600009F4B8CF143761F58981811129C08AE475
:1003700094E00E94DD050E9478030E949A059C018A
:1003800091E0232B09F490E090930F021F929F932A
:1003900088E594E09F938F930E94C9050F900F907A
:1003A0000F900F9011CF1F928F938AEF93E09F933E
:1003B0008F930E94C9050F900F900F900F9004CF5C
:1003C00062E474E0CE010E94B805892B81F2DF93CC
:1003D000CF938BE694E09F938F930E94C9050F9073
:1003E0000F900F900F90F0CE84E292E087CFCF93E2
:1003F000DF93F89480910F02811589F08091220596
:10040000811539F080911002833609F43DC082369F
:1004100061F1789481E090E0DF91CF91089580912F
:10042000C4068D7F8093C40680910E02811127C07F
:1004300010920E024091110263E275E08BE295E0AA
:100440000E94F40380930F0298E0EBE2F5E0A3E250
:10045000B5E001900D929A95E1F781110BC0789467
:1004600080E090E0DF91CF9108958BE295E00E94CB
:10047000AD04CFCF84E994E00E94DD05F0CF80E8A1
:1004800094E00E94DD05D4CF809111020E94DF0329
:10049000EC018091110280FDB9C081FD9FC082FDF9
:1004A00085C083FD6BC084FD51C085FD37C086FDCE
:1004B0001DC090E0880F892F881F990B892B09F4A4
:1004C000A8CFC0933205DD27DF93CF931F9287E03B
:1004D0008F938FE994E09F938F930E94C9050F90AB
:1004E0000F900F900F900F900F9093CFC093310506
:1004F000CE0199279F938F931F9286E08F938FE968
:1005000094E09F938F930E94C9050F900F900F90D6
:100510000F900F900F9080911102CBCFC0933005B8
:10052000CE0199279F938F931F9285E08F938FE938
:1005300094E09F938F930E94C9050F900F900F90A6
:100540000F900F900F9080911102B1CFC0932F05A3
:10055000CE0199279F938F931F9284E08F938FE909
:1005600094E09F938F930E94C9050F900F900F9076
:100570000F900F900F908091110297CFC0932E058E
:10058000CE0199279F938F931F9283E08F938FE9DA
:1005900094E09F938F930E94C9050F900F900F9046
:1005A0000F900F900F90809111027DCFC0932D0579
:1005B000CE0199279F938F931F9282E08F938FE9AB
:1005C00094E09F938F930E94C9050F900F900F9016
:1005D0000F900F900F908091110263CFC0932C0564
:1005E000CE0199279F938F931F9281E08F938FE97C
:1005F00094E09F938F930E94C9050F900F900F90E6
:100600000F900F900F908091110249CFC0932B054E
:10061000CE0199279F938F931F921F928FE994E0A9
:100620009F938F930E94C9050F900F900F900F908A
:100630000F900F908091110230CFCF93DF93D82F7E
:10064000C92F0E94D4030E949F038D2F9C2F0E94CC
:10065000B103789480EB94E00E94DD0583EC94E094
:10066000DF91CF910C94DD058F938FB78F9380919D
:10067000C40682608093C4068F918FBF8F911895B6
:100680008F938FB78F938091C40684608093C40644
:100690008F918FBF8F9118958A3049F09091C0004B
:1006A00095FFFCCF8093C60080E090E00895909184
:1006B000C00095FFFCCF9DE09093C600EFCF9093D4
:1006C000C5008093C40086E08093C20088E98093CF
:1006D000C10008959091C00095FFFCCF8093C600A3
:1006E00008958091C00087FFFCCF8091C6000895D7
:1006F000E2EEF4E08091C00087FFFCCF8091C6005D
:100700008A3021F08D3011F08193F4CF108282EE87
:1007100094E008958091C00087FB882780F90895B0
:10072000FC019081911551F031968091C00085FFB8
:10073000FCCF9093C60091919111F7CF089580E07E
:1007400092E09093C8068093C7061092C50087E692
:100750008093C40086E08093C20088E98093C10042
:10076000089582959295907F9827807F98279C0185
:1007700040E050E060E074E284EF90E00E945905B0
:1007800021503109E1E8F0E0808188608083808138
:10079000826080833093890020938800EFE6F0E048
:1007A000808182608083089580E680937C00EAE700
:1007B000F0E087E080838081806880830895909155
:1007C0007C008F70907F892B80937C0080917A00D1
:1007D000806480937A0080917A0086FDFCCF8091BE
:1007E0007800909179000895CF93DF93DC01FB01AD
:1007F000842F90E040FF0EC02C91622F70E030817A
:10080000C32FD0E0231B330B37FD9CC023333105AE
:100810000CF09FC041FF13C011962C911197622FCD
:1008200070E03181C32FD0E0231B330B37FF03C0AF
:100830009E01261B370B233331050CF08AC042FF83
:1008400013C012962C911297622F70E03281C32F41
:10085000D0E0231B330B37FF03C09E01261B370B51
:10086000233331050CF075C043FF13C013962C9150
:100870001397622F70E03381C32FD0E0231B330B1B
:1008800037FF03C09E01261B370B233331050CF0C5
:1008900060C044FF13C014962C911497622F70E02F
:1008A0003481C32FD0E0231B330B37FF03C09E01DD
:1008B000261B370B233331050CF04BC045FF12C00C
:1008C00015962C911597622F70E03581C32FD0E0DB
:1008D000231B330B37FF03C09E01261B370B23332B
:1008E0003105BCF546FF12C016962C911697422F83
:1008F00050E03681632F70E0231B330B37FF03C0BA
:100900009B01241B350B233331051CF5880F892FE0
:10091000881F990B892B91F017962C91422F50E04C
:100920008781682F70E0281B330B37FF03C09B01C2
:10093000241B350B81E0233331050CF480E0DF917B
:10094000CF9108959E01261B370B233331050CF4FC
:1009500061CF81E0DF91CF910895EF92FF920F93E5
:100960001F93CF93DF93DC018091C306E82FF0E063
:100970009C91EE0FFF1FEE0FFF1FEE0FFF1FED5CB0
:10098000FA4F908311969C911197918312969C91A6
:100990001297928313969C911397938314969C912C
:1009A0001497948315969C911597958316969C9110
:1009B0001697968317969C9197838F5F8093C306B3
:1009C0000BE315E0E12CF12C823390F4DF91CF9111
:1009D0001F910F91FF90EF9008958FEFE81AF80A9A
:1009E0008E01085F1F4F8091C306E816F1044CF496
:1009F000E801289789910E946A03C017D107D1F7AF
:100A0000ECCF1092C306DF91CF911F910F91FF9011
:100A1000EF900895EF92FF920F931F93CF93DF9380
:100A20008091C3068115B1F00BE315E0E12CF12CA8
:100A3000E801289789910E946A03C017D107D1F76E
:100A40008FEFE81AF80A085F1F4F8091C306E81677
:100A5000F10474F31092C306DF91CF911F910F91AF
:100A6000FF90EF90089580911202909113020E94DE
:100A70001D038091C40681FF06C00E94F70180918A
:100A8000C40681FDFACF82FF05C00E9478030E9450
:100A90009700EFCF85ED94E00E94DD0583B7817F5D
:100AA00083BF83B7816083BF889583B78E7F83BF01
:100AB000E0CF052E97FB1EF400940E94700557FDB1
:100AC00007D00E94780507FC03D04EF40C94700503
:100AD00050954095309521953F4F4F4F5F4F08956A
:100AE00090958095709561957F4F8F4F9F4F08959A
:100AF000A1E21A2EAA1BBB1BFD010DC0AA1FBB1F22
:100B0000EE1FFF1FA217B307E407F50720F0A21B93
:100B1000B30BE40BF50B661F771F881F991F1A9400
:100B200069F760957095809590959B01AC01BD012A
:100B3000CF010895FC0188279927E894219120325C
:100B4000E9F3293010F02E30C8F32B3241F02D326A
:100B500039F4689404C00E94C105820F911D21914F
:100B600020532A30C0F31EF4909581959F4F08952D
:100B7000FB01DC018D91019080190110D9F3990BD3
:100B800008957AE0979F902D879F802D910D1124D5
:100B90000895CF93DF93CDB7DEB7AE014A5F5F4FC5
:100BA000FA0161917191AF018091C7069091C806D9
:100BB0000E940906DF91CF9108950F931F93CF9361
:100BC000DF93E091C706F091C806238100E010E0B2
:100BD00021FD0EC00FEF1FEFC801DF91CF911F91D4
:100BE0000F9108951995892B11F00FEF1FEFCE018A
:100BF000EC0189916091C7067091C806DB011896D7
:100C0000ED91FC918111EECF8AE01995892B21F3AA
:100C1000E1CF3F924F925F926F927F928F929F921D
:100C2000AF92BF92CF92DF92EF92FF920F931F93FA
:100C3000CF93DF9300D000D000D00F920F92CDB7AA
:100C4000DEB76C017B018A01FC0117821682838169
:100C500081FFEEC19AE0492EF6012381F70123FDC1
:100C6000859123FF81917F01811509F41FC1853290
:100C700039F423FD959123FF91917F01953229F459
:100C8000B60190E00E943108E7CF30E0612C512C92
:100C9000712CF0E27F1640F59B32D9F058F4903277
:100CA000D1F09332F1F09E3299F576FCFFC0689452
:100CB00076F806C09D3291F09033C1F4689470F8D4
:100CC000F70123FD959123FF91917F019111E1CFD0
:100CD00029C0689471F8689472F8F2CF689473F838
:100CE000EFCF689474F8ECCF77FC1CC080ED890FCF
:100CF0008A30C8F676FE05C0649C800D1124682EEB
:100D0000DFCF549C800D1124582E689475F8D8CFED
:100D10009C3619F4689477F8D3CF9C3409F44BC00F
:100D2000983671F2892F8F7D8554833008F445C041
:100D3000933609F466C0933709F469C0933509F412
:100D400075C0943619F0993609F09FC0F80177FE06
:100D500095C061917191819191918F01272D2F768D
:100D6000722E97FF09C090958095709561957F4F81
:100D70008F4F9F4F689477F82AE030E0AE014F5FC5
:100D80005F4F5A010E9461088A19A82E76FED9C0C9
:100D9000872D8E7FA61408F0D3C074FE26C172FC86
:100DA0001AC1F72DFE7E7F2EB62C872D86788115F1
:100DB00009F4D4C015C131E083CF3115F9F0085FD3
:100DC0001F4F8FE3898388248394912CAE014F5F5A
:100DD0005F4F5A01E89477F873FC03C085149104BF
:100DE000B0F181149104D1F5511409F435CFB60155
:100DF00080E290E00E9431085A94F6CF0C5F1F4FBA
:100E0000E0CFF801808189830E5F1F4FDCCFF801AE
:100E1000A190B1908F01662D70E076FC02C06FEF5B
:100E20007FEFC5010E9426084C01D4CFF801A190A4
:100E3000B1908F01662D70E076FC02C06FEF7FEFFE
:100E4000C5010E941B084C01689477F8C5CFB60114
:100E500080E290E00E9431085A94C0CFF50177FCFF
:100E6000859177FE81915F01B60190E00E94310883
:100E700051105A94F1E08F1A9108B3CF619171919A
:100E8000072E000C880B990B68CF372CE89434F8A8
:100E90002AE030E09537D9F1572D597F352E90371C
:100EA00039F1F8F4983549F19F3679F1F6018681E8
:100EB00097812B960FB6F894DEBF0FBECDBFDF91A2
:100EC000CF911F910F91FF90EF90DF90CF90BF9047
:100ED000AF909F908F907F906F905F904F903F90DA
:100EE0000895983719F774FC05C020E130E00FC071
:100EF000689434F8689432F8F8CF74FE03C0872DF4
:100F00008660382E20E132E002C028E030E0F801AF
:100F100037FE11C061917191819191918F01FE0114
:100F200031965F01AF010E9461088A19A82E732CC7
:100F3000E89477F82BCF6191719180E090E0EECF4B
:100F4000782EBA2C74FE31CFFE01EA0DF11D80819E
:100F5000803309F043C0272D297E722E73FC0EC00A
:100F600070FE4FC06A2CB51418F4650C6B18B52CC4
:100F7000852D8B195B1408F480E0B80EB51408F0C9
:100F800042C05B1874FE41C0B60180E390E00E944D
:100F9000310872FE09C088E590E071FC02C088E764
:100FA00090E0B6010E943108A614D8F1AA94B12CA1
:100FB0004FEFA41AB40ACE0101963C01A80EB91E47
:100FC000F50182915F01B60190E00E9431086A1438
:100FD0007B04B1F709CFB62C782EB6CF72FC02C0D5
:100FE000B394BCCFB394B394B9CFB62C782EDDCEE6
:100FF000B60180E290E00E94310833943514C0F3CA
:10100000B7CF3B2CFBCF512CBDCF872D86788115D8
:1010100059F280E271FC8BE277FC8DE2B60190E040
:10102000C1CFB60180E390E00E9431086A94BCCF42
:101030008FEF9FEF3ECFFC01059061507040011093
:10104000D8F7809590958E0F9F1F0895FC016150F1
:10105000704001900110D8F7809590958E0F9F1FDA
:1010600008950F931F93CF93DF93182F092FEB0150
:101070008B8181FD09C01FEF0FEF812F902FDF9132
:10108000CF911F910F91089582FF14C02E813F814F
:101090008C819D81281739073CF4E881F981CF01C3
:1010A00001969983888310838E819F8101969F8307
:1010B0008E83E3CFE885F985812F1995892BA1F3DC
:1010C000DACFFA01AA27283051F1203181F1E894D2
:1010D0006F936E7F6E5F7F4F8F4F9F4FAF4FB1E02B
:1010E0003ED0B4E03CD0670F781F891F9A1FA11D26
:1010F000680F791F8A1F911DA11D6A0F711D811D27
:10110000911DA11D20D009F468943F912AE0269FEB
:1011100011243019305D3193DEF6CF010895462F4A
:101120004770405D4193B3E00FD0C9F7F6CF462F2B
:101130004F70405D4A3318F0495D31FD4052419394
:1011400002D0A9F7EACFB4E0A69597958795779551
:101150006795BA95C9F700976105710508959B01D8
:10116000AC010A2E06945795479537952795BA9561
:10117000C9F7620F731F841F951FA01D0895F8946F
:02118000FFCF9F
:1011820000000002000000004C030000000001010A
:101192006389E803737461727465640073746F70B9
:1011A2007065640027636F6E74696E756F7573275F
:1011B20000276275666665726564270050726F6308
:1011C200657373696E6720636F6D6D616E643A203B
:1011D20025730A00436F6D6D616E64733A00737418
:1011E200617274202873293A2073746172742074B6
:1011F2006865206F7363696C6C6F73636F706500F1
:1012020073746F70202873293A2073746F7020747E
:101212006865206F7363696C6C6F73636F706500D0
:1012220066726571202866293A2073657420746895
:10123200652073616D706C696E6720667265717589
:10124200656E6379006368616E6E656C2028632940
:101252003A2073657420746865206368616E6E65F8
:101262006C20746F2073616D706C65006D6F6465C6
:1012720020286D293A2073657420746865206D6F8B
:101282006465206F66206F7065726174696F6E00AD
:1012920074726967676572202874293A20736574CD
:1012A20020746865207472696767657220636F6E67
:1012B200646974696F6E0073746172740073746F21
:1012C20070004F7363696C6C6F73636F7065202578
:1012D200730A006672657100456E746572206672EB
:1012E200657175656E63792028487A293A20005322
:1012F200616D706C696E67206672657175656E638B
:10130200792073657420746F20256420487A0A005E
:101312006368616E6E656C00456E74657220636809
:10132200616E6E656C3A20004368616E6E656C207A
:1013320073657420746F2025640A006D6F64650004
:10134200456E746572206D6F64652028633A206370
:101352006F6E74696E756F75732C20623A206275B8
:10136200666665726564293A20004D6F6465207374
:10137200657420746F2025730A00756E6B6E6F772B
:101382006E206D6F646520272563272C2074797089
:10139200652027632720666F7220636F6E74696E03
:1013A200756F7573206D6F64652C20276227206628
:1013B2006F72206275666665726564206D6F646522
:1013C2000A007472696767657200536574207472EB
:1013D20069676765723A20005472696767657220AF
:1013E20073657420746F2025640A00556E6B6E6FEE
:1013F200776E20636F6D6D616E643A2025730A000B
:1014020057616974696E6720666F722054726967EA
:10141200676572005472696767657265642100636B
:1014220068616E6E656C202564203A2025640A008E
:101432004F7363696C6C6F73636F70652072656163
:10144200647900547970652027682720666F7220BE
:1014520068656C7000536C656570696E672E2E2E20
:02146200000088
:00000001FF
